{
    "contractName": "Pet",
    "abi": [
        {
            "inputs": [],
            "stateMutability": "nonpayable",
            "type": "constructor"
        },
        {
            "anonymous": false,
            "inputs": [
                {
                    "indexed": true,
                    "internalType": "address",
                    "name": "owner",
                    "type": "address"
                },
                {
                    "indexed": true,
                    "internalType": "address",
                    "name": "approved",
                    "type": "address"
                },
                {
                    "indexed": true,
                    "internalType": "uint256",
                    "name": "tokenId",
                    "type": "uint256"
                }
            ],
            "name": "Approval",
            "type": "event"
        },
        {
            "anonymous": false,
            "inputs": [
                {
                    "indexed": true,
                    "internalType": "address",
                    "name": "owner",
                    "type": "address"
                },
                {
                    "indexed": true,
                    "internalType": "address",
                    "name": "operator",
                    "type": "address"
                },
                {
                    "indexed": false,
                    "internalType": "bool",
                    "name": "approved",
                    "type": "bool"
                }
            ],
            "name": "ApprovalForAll",
            "type": "event"
        },
        {
            "anonymous": false,
            "inputs": [
                {
                    "indexed": false,
                    "internalType": "uint256",
                    "name": "tokenId",
                    "type": "uint256"
                },
                {
                    "indexed": false,
                    "internalType": "string",
                    "name": "imageURL",
                    "type": "string"
                },
                {
                    "indexed": false,
                    "internalType": "uint256",
                    "name": "date",
                    "type": "uint256"
                },
                {
                    "indexed": false,
                    "internalType": "address",
                    "name": "from",
                    "type": "address"
                }
            ],
            "name": "PetNFTCreated",
            "type": "event"
        },
        {
            "anonymous": false,
            "inputs": [
                {
                    "indexed": true,
                    "internalType": "address",
                    "name": "from",
                    "type": "address"
                },
                {
                    "indexed": true,
                    "internalType": "address",
                    "name": "to",
                    "type": "address"
                },
                {
                    "indexed": true,
                    "internalType": "uint256",
                    "name": "tokenId",
                    "type": "uint256"
                }
            ],
            "name": "Transfer",
            "type": "event"
        },
        {
            "inputs": [
                {
                    "internalType": "address",
                    "name": "to",
                    "type": "address"
                },
                {
                    "internalType": "uint256",
                    "name": "tokenId",
                    "type": "uint256"
                }
            ],
            "name": "approve",
            "outputs": [],
            "stateMutability": "nonpayable",
            "type": "function"
        },
        {
            "inputs": [
                {
                    "internalType": "address",
                    "name": "owner",
                    "type": "address"
                }
            ],
            "name": "balanceOf",
            "outputs": [
                {
                    "internalType": "uint256",
                    "name": "",
                    "type": "uint256"
                }
            ],
            "stateMutability": "view",
            "type": "function",
            "constant": true
        },
        {
            "inputs": [
                {
                    "internalType": "uint256",
                    "name": "tokenId",
                    "type": "uint256"
                }
            ],
            "name": "getApproved",
            "outputs": [
                {
                    "internalType": "address",
                    "name": "",
                    "type": "address"
                }
            ],
            "stateMutability": "view",
            "type": "function",
            "constant": true
        },
        {
            "inputs": [
                {
                    "internalType": "address",
                    "name": "owner",
                    "type": "address"
                },
                {
                    "internalType": "address",
                    "name": "operator",
                    "type": "address"
                }
            ],
            "name": "isApprovedForAll",
            "outputs": [
                {
                    "internalType": "bool",
                    "name": "",
                    "type": "bool"
                }
            ],
            "stateMutability": "view",
            "type": "function",
            "constant": true
        },
        {
            "inputs": [],
            "name": "name",
            "outputs": [
                {
                    "internalType": "string",
                    "name": "",
                    "type": "string"
                }
            ],
            "stateMutability": "view",
            "type": "function",
            "constant": true
        },
        {
            "inputs": [
                {
                    "internalType": "uint256",
                    "name": "tokenId",
                    "type": "uint256"
                }
            ],
            "name": "ownerOf",
            "outputs": [
                {
                    "internalType": "address",
                    "name": "",
                    "type": "address"
                }
            ],
            "stateMutability": "view",
            "type": "function",
            "constant": true
        },
        {
            "inputs": [
                {
                    "internalType": "address",
                    "name": "from",
                    "type": "address"
                },
                {
                    "internalType": "address",
                    "name": "to",
                    "type": "address"
                },
                {
                    "internalType": "uint256",
                    "name": "tokenId",
                    "type": "uint256"
                }
            ],
            "name": "safeTransferFrom",
            "outputs": [],
            "stateMutability": "nonpayable",
            "type": "function"
        },
        {
            "inputs": [
                {
                    "internalType": "address",
                    "name": "from",
                    "type": "address"
                },
                {
                    "internalType": "address",
                    "name": "to",
                    "type": "address"
                },
                {
                    "internalType": "uint256",
                    "name": "tokenId",
                    "type": "uint256"
                },
                {
                    "internalType": "bytes",
                    "name": "_data",
                    "type": "bytes"
                }
            ],
            "name": "safeTransferFrom",
            "outputs": [],
            "stateMutability": "nonpayable",
            "type": "function"
        },
        {
            "inputs": [
                {
                    "internalType": "address",
                    "name": "operator",
                    "type": "address"
                },
                {
                    "internalType": "bool",
                    "name": "approved",
                    "type": "bool"
                }
            ],
            "name": "setApprovalForAll",
            "outputs": [],
            "stateMutability": "nonpayable",
            "type": "function"
        },
        {
            "inputs": [
                {
                    "internalType": "bytes4",
                    "name": "interfaceId",
                    "type": "bytes4"
                }
            ],
            "name": "supportsInterface",
            "outputs": [
                {
                    "internalType": "bool",
                    "name": "",
                    "type": "bool"
                }
            ],
            "stateMutability": "view",
            "type": "function",
            "constant": true
        },
        {
            "inputs": [],
            "name": "symbol",
            "outputs": [
                {
                    "internalType": "string",
                    "name": "",
                    "type": "string"
                }
            ],
            "stateMutability": "view",
            "type": "function",
            "constant": true
        },
        {
            "inputs": [
                {
                    "internalType": "uint256",
                    "name": "tokenId",
                    "type": "uint256"
                }
            ],
            "name": "tokenURI",
            "outputs": [
                {
                    "internalType": "string",
                    "name": "",
                    "type": "string"
                }
            ],
            "stateMutability": "view",
            "type": "function",
            "constant": true
        },
        {
            "inputs": [
                {
                    "internalType": "address",
                    "name": "from",
                    "type": "address"
                },
                {
                    "internalType": "address",
                    "name": "to",
                    "type": "address"
                },
                {
                    "internalType": "uint256",
                    "name": "tokenId",
                    "type": "uint256"
                }
            ],
            "name": "transferFrom",
            "outputs": [],
            "stateMutability": "nonpayable",
            "type": "function"
        },
        {
            "inputs": [
                {
                    "internalType": "address",
                    "name": "person",
                    "type": "address"
                },
                {
                    "internalType": "string",
                    "name": "tokenURI",
                    "type": "string"
                }
            ],
            "name": "mintPetNFT",
            "outputs": [],
            "stateMutability": "nonpayable",
            "type": "function"
        }
    ],
    "bytecode": "0x60806040523480156200001157600080fd5b506040518060400160405280600381526020017f50657400000000000000000000000000000000000000000000000000000000008152506040518060400160405280600381526020017f5045540000000000000000000000000000000000000000000000000000000000815250816000908051906020019062000096929190620000b8565b508060019080519060200190620000af929190620000b8565b505050620001cd565b828054620000c69062000197565b90600052602060002090601f016020900481019282620000ea576000855562000136565b82601f106200010557805160ff191683800117855562000136565b8280016001018555821562000136579182015b828111156200013557825182559160200191906001019062000118565b5b50905062000145919062000149565b5090565b5b80821115620001645760008160009055506001016200014a565b5090565b7f4e487b7100000000000000000000000000000000000000000000000000000000600052602260045260246000fd5b60006002820490506001821680620001b057607f821691505b60208210811415620001c757620001c662000168565b5b50919050565b612c3080620001dd6000396000f3fe608060405234801561001057600080fd5b50600436106100ea5760003560e01c80636352211e1161008c578063a22cb46511610066578063a22cb4651461025b578063b88d4fde14610277578063c87b56dd14610293578063e985e9c5146102c3576100ea565b80636352211e146101dd57806370a082311461020d57806395d89b411461023d576100ea565b8063095ea7b3116100c8578063095ea7b31461016d5780632308d2a41461018957806323b872dd146101a557806342842e0e146101c1576100ea565b806301ffc9a7146100ef57806306fdde031461011f578063081812fc1461013d575b600080fd5b61010960048036038101906101049190611946565b6102f3565b604051610116919061198e565b60405180910390f35b6101276103d5565b6040516101349190611a42565b60405180910390f35b61015760048036038101906101529190611a9a565b610467565b6040516101649190611b08565b60405180910390f35b61018760048036038101906101829190611b4f565b6104ec565b005b6101a3600480360381019061019e9190611cc4565b610604565b005b6101bf60048036038101906101ba9190611d20565b610672565b005b6101db60048036038101906101d69190611d20565b6106d2565b005b6101f760048036038101906101f29190611a9a565b6106f2565b6040516102049190611b08565b60405180910390f35b61022760048036038101906102229190611d73565b6107a4565b6040516102349190611daf565b60405180910390f35b61024561085c565b6040516102529190611a42565b60405180910390f35b61027560048036038101906102709190611df6565b6108ee565b005b610291600480360381019061028c9190611ed7565b610904565b005b6102ad60048036038101906102a89190611a9a565b610966565b6040516102ba9190611a42565b60405180910390f35b6102dd60048036038101906102d89190611f5a565b610ab8565b6040516102ea919061198e565b60405180910390f35b60007f80ac58cd000000000000000000000000000000000000000000000000000000007bffffffffffffffffffffffffffffffffffffffffffffffffffffffff1916827bffffffffffffffffffffffffffffffffffffffffffffffffffffffff191614806103be57507f5b5e139f000000000000000000000000000000000000000000000000000000007bffffffffffffffffffffffffffffffffffffffffffffffffffffffff1916827bffffffffffffffffffffffffffffffffffffffffffffffffffffffff1916145b806103ce57506103cd82610b4c565b5b9050919050565b6060600080546103e490611fc9565b80601f016020809104026020016040519081016040528092919081815260200182805461041090611fc9565b801561045d5780601f106104325761010080835404028352916020019161045d565b820191906000526020600020905b81548152906001019060200180831161044057829003601f168201915b5050505050905090565b600061047282610bb6565b6104b1576040517f08c379a00000000000000000000000000000000000000000000000000000000081526004016104a89061206d565b60405180910390fd5b6004600083815260200190815260200160002060009054906101000a900473ffffffffffffffffffffffffffffffffffffffff169050919050565b60006104f7826106f2565b90508073ffffffffffffffffffffffffffffffffffffffff168373ffffffffffffffffffffffffffffffffffffffff161415610568576040517f08c379a000000000000000000000000000000000000000000000000000000000815260040161055f906120ff565b60405180910390fd5b8073ffffffffffffffffffffffffffffffffffffffff16610587610c22565b73ffffffffffffffffffffffffffffffffffffffff1614806105b657506105b5816105b0610c22565b610ab8565b5b6105f5576040517f08c379a00000000000000000000000000000000000000000000000000000000081526004016105ec90612191565b60405180910390fd5b6105ff8383610c2a565b505050565b61060e6007610ce3565b600061061a6007610cf9565b90506106268382610d07565b6106308183610ee1565b7f87b775753367289ca3e232032eee8d6eeccbe8aa93d9bc9f9db865d3d2b388ea8183428660405161066594939291906121b1565b60405180910390a1505050565b61068361067d610c22565b82610f55565b6106c2576040517f08c379a00000000000000000000000000000000000000000000000000000000081526004016106b99061226f565b60405180910390fd5b6106cd838383611033565b505050565b6106ed83838360405180602001604052806000815250610904565b505050565b6000806002600084815260200190815260200160002060009054906101000a900473ffffffffffffffffffffffffffffffffffffffff169050600073ffffffffffffffffffffffffffffffffffffffff168173ffffffffffffffffffffffffffffffffffffffff16141561079b576040517f08c379a000000000000000000000000000000000000000000000000000000000815260040161079290612301565b60405180910390fd5b80915050919050565b60008073ffffffffffffffffffffffffffffffffffffffff168273ffffffffffffffffffffffffffffffffffffffff161415610815576040517f08c379a000000000000000000000000000000000000000000000000000000000815260040161080c90612393565b60405180910390fd5b600360008373ffffffffffffffffffffffffffffffffffffffff1673ffffffffffffffffffffffffffffffffffffffff168152602001908152602001600020549050919050565b60606001805461086b90611fc9565b80601f016020809104026020016040519081016040528092919081815260200182805461089790611fc9565b80156108e45780601f106108b9576101008083540402835291602001916108e4565b820191906000526020600020905b8154815290600101906020018083116108c757829003601f168201915b5050505050905090565b6109006108f9610c22565b838361129a565b5050565b61091561090f610c22565b83610f55565b610954576040517f08c379a000000000000000000000000000000000000000000000000000000000815260040161094b9061226f565b60405180910390fd5b61096084848484611407565b50505050565b606061097182610bb6565b6109b0576040517f08c379a00000000000000000000000000000000000000000000000000000000081526004016109a790612425565b60405180910390fd5b60006006600084815260200190815260200160002080546109d090611fc9565b80601f01602080910402602001604051908101604052809291908181526020018280546109fc90611fc9565b8015610a495780601f10610a1e57610100808354040283529160200191610a49565b820191906000526020600020905b815481529060010190602001808311610a2c57829003601f168201915b505050505090506000610a5a611463565b9050600081511415610a70578192505050610ab3565b600082511115610aa5578082604051602001610a8d929190612481565b60405160208183030381529060405292505050610ab3565b610aae8461147a565b925050505b919050565b6000600560008473ffffffffffffffffffffffffffffffffffffffff1673ffffffffffffffffffffffffffffffffffffffff16815260200190815260200160002060008373ffffffffffffffffffffffffffffffffffffffff1673ffffffffffffffffffffffffffffffffffffffff16815260200190815260200160002060009054906101000a900460ff16905092915050565b60007f01ffc9a7000000000000000000000000000000000000000000000000000000007bffffffffffffffffffffffffffffffffffffffffffffffffffffffff1916827bffffffffffffffffffffffffffffffffffffffffffffffffffffffff1916149050919050565b60008073ffffffffffffffffffffffffffffffffffffffff166002600084815260200190815260200160002060009054906101000a900473ffffffffffffffffffffffffffffffffffffffff1673ffffffffffffffffffffffffffffffffffffffff1614159050919050565b600033905090565b816004600083815260200190815260200160002060006101000a81548173ffffffffffffffffffffffffffffffffffffffff021916908373ffffffffffffffffffffffffffffffffffffffff160217905550808273ffffffffffffffffffffffffffffffffffffffff16610c9d836106f2565b73ffffffffffffffffffffffffffffffffffffffff167f8c5be1e5ebec7d5bd14f71427d1e84f3dd0314c0f7b2291e5b200ac8c7c3b92560405160405180910390a45050565b6001816000016000828254019250508190555050565b600081600001549050919050565b600073ffffffffffffffffffffffffffffffffffffffff168273ffffffffffffffffffffffffffffffffffffffff161415610d77576040517f08c379a0000000000000000000000000000000000000000000000000000000008152600401610d6e906124f1565b60405180910390fd5b610d8081610bb6565b15610dc0576040517f08c379a0000000000000000000000000000000000000000000000000000000008152600401610db79061255d565b60405180910390fd5b610dcc60008383611521565b6001600360008473ffffffffffffffffffffffffffffffffffffffff1673ffffffffffffffffffffffffffffffffffffffff1681526020019081526020016000206000828254610e1c91906125ac565b92505081905550816002600083815260200190815260200160002060006101000a81548173ffffffffffffffffffffffffffffffffffffffff021916908373ffffffffffffffffffffffffffffffffffffffff160217905550808273ffffffffffffffffffffffffffffffffffffffff16600073ffffffffffffffffffffffffffffffffffffffff167fddf252ad1be2c89b69c2b068fc378daa952ba7f163c4a11628f55a4df523b3ef60405160405180910390a4610edd60008383611526565b5050565b610eea82610bb6565b610f29576040517f08c379a0000000000000000000000000000000000000000000000000000000008152600401610f2090612674565b60405180910390fd5b80600660008481526020019081526020016000209080519060200190610f50929190611837565b505050565b6000610f6082610bb6565b610f9f576040517f08c379a0000000000000000000000000000000000000000000000000000000008152600401610f9690612706565b60405180910390fd5b6000610faa836106f2565b90508073ffffffffffffffffffffffffffffffffffffffff168473ffffffffffffffffffffffffffffffffffffffff16148061101957508373ffffffffffffffffffffffffffffffffffffffff1661100184610467565b73ffffffffffffffffffffffffffffffffffffffff16145b8061102a57506110298185610ab8565b5b91505092915050565b8273ffffffffffffffffffffffffffffffffffffffff16611053826106f2565b73ffffffffffffffffffffffffffffffffffffffff16146110a9576040517f08c379a00000000000000000000000000000000000000000000000000000000081526004016110a090612798565b60405180910390fd5b600073ffffffffffffffffffffffffffffffffffffffff168273ffffffffffffffffffffffffffffffffffffffff161415611119576040517f08c379a00000000000000000000000000000000000000000000000000000000081526004016111109061282a565b60405180910390fd5b611124838383611521565b61112f600082610c2a565b6001600360008573ffffffffffffffffffffffffffffffffffffffff1673ffffffffffffffffffffffffffffffffffffffff168152602001908152602001600020600082825461117f919061284a565b925050819055506001600360008473ffffffffffffffffffffffffffffffffffffffff1673ffffffffffffffffffffffffffffffffffffffff16815260200190815260200160002060008282546111d691906125ac565b92505081905550816002600083815260200190815260200160002060006101000a81548173ffffffffffffffffffffffffffffffffffffffff021916908373ffffffffffffffffffffffffffffffffffffffff160217905550808273ffffffffffffffffffffffffffffffffffffffff168473ffffffffffffffffffffffffffffffffffffffff167fddf252ad1be2c89b69c2b068fc378daa952ba7f163c4a11628f55a4df523b3ef60405160405180910390a4611295838383611526565b505050565b8173ffffffffffffffffffffffffffffffffffffffff168373ffffffffffffffffffffffffffffffffffffffff161415611309576040517f08c379a0000000000000000000000000000000000000000000000000000000008152600401611300906128ca565b60405180910390fd5b80600560008573ffffffffffffffffffffffffffffffffffffffff1673ffffffffffffffffffffffffffffffffffffffff16815260200190815260200160002060008473ffffffffffffffffffffffffffffffffffffffff1673ffffffffffffffffffffffffffffffffffffffff16815260200190815260200160002060006101000a81548160ff0219169083151502179055508173ffffffffffffffffffffffffffffffffffffffff168373ffffffffffffffffffffffffffffffffffffffff167f17307eab39ab6107e8899845ad3d59bd9653f200f220920489ca2b5937696c31836040516113fa919061198e565b60405180910390a3505050565b611412848484611033565b61141e8484848461152b565b61145d576040517f08c379a00000000000000000000000000000000000000000000000000000000081526004016114549061295c565b60405180910390fd5b50505050565b606060405180602001604052806000815250905090565b606061148582610bb6565b6114c4576040517f08c379a00000000000000000000000000000000000000000000000000000000081526004016114bb906129ee565b60405180910390fd5b60006114ce611463565b905060008151116114ee5760405180602001604052806000815250611519565b806114f8846116b3565b604051602001611509929190612481565b6040516020818303038152906040525b915050919050565b505050565b505050565b600061154c8473ffffffffffffffffffffffffffffffffffffffff16611814565b156116a6578373ffffffffffffffffffffffffffffffffffffffff1663150b7a02611575610c22565b8786866040518563ffffffff1660e01b81526004016115979493929190612a63565b6020604051808303816000875af19250505080156115d357506040513d601f19601f820116820180604052508101906115d09190612ac4565b60015b611656573d8060008114611603576040519150601f19603f3d011682016040523d82523d6000602084013e611608565b606091505b5060008151141561164e576040517f08c379a00000000000000000000000000000000000000000000000000000000081526004016116459061295c565b60405180910390fd5b805181602001fd5b63150b7a0260e01b7bffffffffffffffffffffffffffffffffffffffffffffffffffffffff1916817bffffffffffffffffffffffffffffffffffffffffffffffffffffffff1916149150506116ab565b600190505b949350505050565b606060008214156116fb576040518060400160405280600181526020017f3000000000000000000000000000000000000000000000000000000000000000815250905061180f565b600082905060005b6000821461172d57808061171690612af1565b915050600a826117269190612b69565b9150611703565b60008167ffffffffffffffff81111561174957611748611b99565b5b6040519080825280601f01601f19166020018201604052801561177b5781602001600182028036833780820191505090505b5090505b6000851461180857600182611794919061284a565b9150600a856117a39190612b9a565b60306117af91906125ac565b60f81b8183815181106117c5576117c4612bcb565b5b60200101907effffffffffffffffffffffffffffffffffffffffffffffffffffffffffffff1916908160001a905350600a856118019190612b69565b945061177f565b8093505050505b919050565b6000808273ffffffffffffffffffffffffffffffffffffffff163b119050919050565b82805461184390611fc9565b90600052602060002090601f01602090048101928261186557600085556118ac565b82601f1061187e57805160ff19168380011785556118ac565b828001600101855582156118ac579182015b828111156118ab578251825591602001919060010190611890565b5b5090506118b991906118bd565b5090565b5b808211156118d65760008160009055506001016118be565b5090565b6000604051905090565b600080fd5b600080fd5b60007fffffffff0000000000000000000000000000000000000000000000000000000082169050919050565b611923816118ee565b811461192e57600080fd5b50565b6000813590506119408161191a565b92915050565b60006020828403121561195c5761195b6118e4565b5b600061196a84828501611931565b91505092915050565b60008115159050919050565b61198881611973565b82525050565b60006020820190506119a3600083018461197f565b92915050565b600081519050919050565b600082825260208201905092915050565b60005b838110156119e35780820151818401526020810190506119c8565b838111156119f2576000848401525b50505050565b6000601f19601f8301169050919050565b6000611a14826119a9565b611a1e81856119b4565b9350611a2e8185602086016119c5565b611a37816119f8565b840191505092915050565b60006020820190508181036000830152611a5c8184611a09565b905092915050565b6000819050919050565b611a7781611a64565b8114611a8257600080fd5b50565b600081359050611a9481611a6e565b92915050565b600060208284031215611ab057611aaf6118e4565b5b6000611abe84828501611a85565b91505092915050565b600073ffffffffffffffffffffffffffffffffffffffff82169050919050565b6000611af282611ac7565b9050919050565b611b0281611ae7565b82525050565b6000602082019050611b1d6000830184611af9565b92915050565b611b2c81611ae7565b8114611b3757600080fd5b50565b600081359050611b4981611b23565b92915050565b60008060408385031215611b6657611b656118e4565b5b6000611b7485828601611b3a565b9250506020611b8585828601611a85565b9150509250929050565b600080fd5b600080fd5b7f4e487b7100000000000000000000000000000000000000000000000000000000600052604160045260246000fd5b611bd1826119f8565b810181811067ffffffffffffffff82111715611bf057611bef611b99565b5b80604052505050565b6000611c036118da565b9050611c0f8282611bc8565b919050565b600067ffffffffffffffff821115611c2f57611c2e611b99565b5b611c38826119f8565b9050602081019050919050565b82818337600083830152505050565b6000611c67611c6284611c14565b611bf9565b905082815260208101848484011115611c8357611c82611b94565b5b611c8e848285611c45565b509392505050565b600082601f830112611cab57611caa611b8f565b5b8135611cbb848260208601611c54565b91505092915050565b60008060408385031215611cdb57611cda6118e4565b5b6000611ce985828601611b3a565b925050602083013567ffffffffffffffff811115611d0a57611d096118e9565b5b611d1685828601611c96565b9150509250929050565b600080600060608486031215611d3957611d386118e4565b5b6000611d4786828701611b3a565b9350506020611d5886828701611b3a565b9250506040611d6986828701611a85565b9150509250925092565b600060208284031215611d8957611d886118e4565b5b6000611d9784828501611b3a565b91505092915050565b611da981611a64565b82525050565b6000602082019050611dc46000830184611da0565b92915050565b611dd381611973565b8114611dde57600080fd5b50565b600081359050611df081611dca565b92915050565b60008060408385031215611e0d57611e0c6118e4565b5b6000611e1b85828601611b3a565b9250506020611e2c85828601611de1565b9150509250929050565b600067ffffffffffffffff821115611e5157611e50611b99565b5b611e5a826119f8565b9050602081019050919050565b6000611e7a611e7584611e36565b611bf9565b905082815260208101848484011115611e9657611e95611b94565b5b611ea1848285611c45565b509392505050565b600082601f830112611ebe57611ebd611b8f565b5b8135611ece848260208601611e67565b91505092915050565b60008060008060808587031215611ef157611ef06118e4565b5b6000611eff87828801611b3a565b9450506020611f1087828801611b3a565b9350506040611f2187828801611a85565b925050606085013567ffffffffffffffff811115611f4257611f416118e9565b5b611f4e87828801611ea9565b91505092959194509250565b60008060408385031215611f7157611f706118e4565b5b6000611f7f85828601611b3a565b9250506020611f9085828601611b3a565b9150509250929050565b7f4e487b7100000000000000000000000000000000000000000000000000000000600052602260045260246000fd5b60006002820490506001821680611fe157607f821691505b60208210811415611ff557611ff4611f9a565b5b50919050565b7f4552433732313a20617070726f76656420717565727920666f72206e6f6e657860008201527f697374656e7420746f6b656e0000000000000000000000000000000000000000602082015250565b6000612057602c836119b4565b915061206282611ffb565b604082019050919050565b600060208201905081810360008301526120868161204a565b9050919050565b7f4552433732313a20617070726f76616c20746f2063757272656e74206f776e6560008201527f7200000000000000000000000000000000000000000000000000000000000000602082015250565b60006120e96021836119b4565b91506120f48261208d565b604082019050919050565b60006020820190508181036000830152612118816120dc565b9050919050565b7f4552433732313a20617070726f76652063616c6c6572206973206e6f74206f7760008201527f6e6572206e6f7220617070726f76656420666f7220616c6c0000000000000000602082015250565b600061217b6038836119b4565b91506121868261211f565b604082019050919050565b600060208201905081810360008301526121aa8161216e565b9050919050565b60006080820190506121c66000830187611da0565b81810360208301526121d88186611a09565b90506121e76040830185611da0565b6121f46060830184611af9565b95945050505050565b7f4552433732313a207472616e736665722063616c6c6572206973206e6f74206f60008201527f776e6572206e6f7220617070726f766564000000000000000000000000000000602082015250565b60006122596031836119b4565b9150612264826121fd565b604082019050919050565b600060208201905081810360008301526122888161224c565b9050919050565b7f4552433732313a206f776e657220717565727920666f72206e6f6e657869737460008201527f656e7420746f6b656e0000000000000000000000000000000000000000000000602082015250565b60006122eb6029836119b4565b91506122f68261228f565b604082019050919050565b6000602082019050818103600083015261231a816122de565b9050919050565b7f4552433732313a2062616c616e636520717565727920666f7220746865207a6560008201527f726f206164647265737300000000000000000000000000000000000000000000602082015250565b600061237d602a836119b4565b915061238882612321565b604082019050919050565b600060208201905081810360008301526123ac81612370565b9050919050565b7f45524337323155524953746f726167653a2055524920717565727920666f722060008201527f6e6f6e6578697374656e7420746f6b656e000000000000000000000000000000602082015250565b600061240f6031836119b4565b915061241a826123b3565b604082019050919050565b6000602082019050818103600083015261243e81612402565b9050919050565b600081905092915050565b600061245b826119a9565b6124658185612445565b93506124758185602086016119c5565b80840191505092915050565b600061248d8285612450565b91506124998284612450565b91508190509392505050565b7f4552433732313a206d696e7420746f20746865207a65726f2061646472657373600082015250565b60006124db6020836119b4565b91506124e6826124a5565b602082019050919050565b6000602082019050818103600083015261250a816124ce565b9050919050565b7f4552433732313a20746f6b656e20616c7265616479206d696e74656400000000600082015250565b6000612547601c836119b4565b915061255282612511565b602082019050919050565b600060208201905081810360008301526125768161253a565b9050919050565b7f4e487b7100000000000000000000000000000000000000000000000000000000600052601160045260246000fd5b60006125b782611a64565b91506125c283611a64565b9250827fffffffffffffffffffffffffffffffffffffffffffffffffffffffffffffffff038211156125f7576125f661257d565b5b828201905092915050565b7f45524337323155524953746f726167653a2055524920736574206f66206e6f6e60008201527f6578697374656e7420746f6b656e000000000000000000000000000000000000602082015250565b600061265e602e836119b4565b915061266982612602565b604082019050919050565b6000602082019050818103600083015261268d81612651565b9050919050565b7f4552433732313a206f70657261746f7220717565727920666f72206e6f6e657860008201527f697374656e7420746f6b656e0000000000000000000000000000000000000000602082015250565b60006126f0602c836119b4565b91506126fb82612694565b604082019050919050565b6000602082019050818103600083015261271f816126e3565b9050919050565b7f4552433732313a207472616e736665722066726f6d20696e636f72726563742060008201527f6f776e6572000000000000000000000000000000000000000000000000000000602082015250565b60006127826025836119b4565b915061278d82612726565b604082019050919050565b600060208201905081810360008301526127b181612775565b9050919050565b7f4552433732313a207472616e7366657220746f20746865207a65726f2061646460008201527f7265737300000000000000000000000000000000000000000000000000000000602082015250565b60006128146024836119b4565b915061281f826127b8565b604082019050919050565b6000602082019050818103600083015261284381612807565b9050919050565b600061285582611a64565b915061286083611a64565b9250828210156128735761287261257d565b5b828203905092915050565b7f4552433732313a20617070726f766520746f2063616c6c657200000000000000600082015250565b60006128b46019836119b4565b91506128bf8261287e565b602082019050919050565b600060208201905081810360008301526128e3816128a7565b9050919050565b7f4552433732313a207472616e7366657220746f206e6f6e20455243373231526560008201527f63656976657220696d706c656d656e7465720000000000000000000000000000602082015250565b60006129466032836119b4565b9150612951826128ea565b604082019050919050565b6000602082019050818103600083015261297581612939565b9050919050565b7f4552433732314d657461646174613a2055524920717565727920666f72206e6f60008201527f6e6578697374656e7420746f6b656e0000000000000000000000000000000000602082015250565b60006129d8602f836119b4565b91506129e38261297c565b604082019050919050565b60006020820190508181036000830152612a07816129cb565b9050919050565b600081519050919050565b600082825260208201905092915050565b6000612a3582612a0e565b612a3f8185612a19565b9350612a4f8185602086016119c5565b612a58816119f8565b840191505092915050565b6000608082019050612a786000830187611af9565b612a856020830186611af9565b612a926040830185611da0565b8181036060830152612aa48184612a2a565b905095945050505050565b600081519050612abe8161191a565b92915050565b600060208284031215612ada57612ad96118e4565b5b6000612ae884828501612aaf565b91505092915050565b6000612afc82611a64565b91507fffffffffffffffffffffffffffffffffffffffffffffffffffffffffffffffff821415612b2f57612b2e61257d565b5b600182019050919050565b7f4e487b7100000000000000000000000000000000000000000000000000000000600052601260045260246000fd5b6000612b7482611a64565b9150612b7f83611a64565b925082612b8f57612b8e612b3a565b5b828204905092915050565b6000612ba582611a64565b9150612bb083611a64565b925082612bc057612bbf612b3a565b5b828206905092915050565b7f4e487b7100000000000000000000000000000000000000000000000000000000600052603260045260246000fdfea2646970667358221220cc2c36b5fd1bb3317feb85a99cce452dd5008d57674c00ccd5bf5bfb9df82efe64736f6c634300080a0033",
    "immutableReferences": {},
    "source": "// SPDX-License-Identifier: MIT\r\npragma solidity ^0.8.10;\r\n\r\nimport \"@openzeppelin/contracts/token/ERC721/ERC721.sol\";\r\nimport \"@openzeppelin/contracts/token/ERC721/extensions/ERC721URIStorage.sol\";\r\nimport \"@openzeppelin/contracts/utils/Counters.sol\";\r\n\r\ncontract Pet is ERC721URIStorage {\r\n    using Counters for Counters.Counter;\r\n    Counters.Counter private _tokenIds;\r\n\r\n    constructor() ERC721(\"Pet\", \"PET\") {}\r\n\r\n    event PetNFTCreated (\r\n        uint tokenId,\r\n        string imageURL,\r\n        uint date,\r\n        address from\r\n    );\r\n\r\n    function mintPetNFT(address person, string memory tokenURI)\r\n        external \r\n    {\r\n        _tokenIds.increment();\r\n\r\n        uint256 newItemId = _tokenIds.current();\r\n        _mint(person, newItemId);\r\n        _setTokenURI(newItemId, tokenURI);\r\n        emit PetNFTCreated(newItemId, tokenURI, block.timestamp, person);\r\n    }\r\n}",
    "sourcePath": "C:\\Users\\NeerajKumar\\Desktop\\solidity-blockchain\\nft-petgram\\contracts\\Pet.sol",
    "compiler": {
        "name": "solc",
        "version": "0.8.10+commit.fc410830.Emscripten.clang"
    },
    "schemaVersion": "3.4.3",
    "updatedAt": "2022-03-26T03:34:20.307Z",
    "networkType": "ethereum",
    "devdoc": {
        "kind": "dev",
        "methods": {
            "approve(address,uint256)": {
                "details": "See {IERC721-approve}."
            },
            "balanceOf(address)": {
                "details": "See {IERC721-balanceOf}."
            },
            "getApproved(uint256)": {
                "details": "See {IERC721-getApproved}."
            },
            "isApprovedForAll(address,address)": {
                "details": "See {IERC721-isApprovedForAll}."
            },
            "name()": {
                "details": "See {IERC721Metadata-name}."
            },
            "ownerOf(uint256)": {
                "details": "See {IERC721-ownerOf}."
            },
            "safeTransferFrom(address,address,uint256)": {
                "details": "See {IERC721-safeTransferFrom}."
            },
            "safeTransferFrom(address,address,uint256,bytes)": {
                "details": "See {IERC721-safeTransferFrom}."
            },
            "setApprovalForAll(address,bool)": {
                "details": "See {IERC721-setApprovalForAll}."
            },
            "supportsInterface(bytes4)": {
                "details": "See {IERC165-supportsInterface}."
            },
            "symbol()": {
                "details": "See {IERC721Metadata-symbol}."
            },
            "tokenURI(uint256)": {
                "details": "See {IERC721Metadata-tokenURI}."
            },
            "transferFrom(address,address,uint256)": {
                "details": "See {IERC721-transferFrom}."
            }
        },
        "version": 1
    },
    "userdoc": {
        "kind": "user",
        "methods": {},
        "version": 1
    }
}